{
  "address": "0x55E133C400BFA8B9363B06BC3bB719D834C14Be8",
  "abi": [
    {
      "inputs": [],
      "stateMutability": "nonpayable",
      "type": "constructor"
    },
    {
      "anonymous": false,
      "inputs": [
        {
          "indexed": false,
          "internalType": "string",
          "name": "content",
          "type": "string"
        },
        {
          "indexed": false,
          "internalType": "string",
          "name": "sender",
          "type": "string"
        },
        {
          "indexed": false,
          "internalType": "string",
          "name": "receiver",
          "type": "string"
        }
      ],
      "name": "MessageSent",
      "type": "event"
    },
    {
      "inputs": [
        {
          "internalType": "address",
          "name": "",
          "type": "address"
        }
      ],
      "name": "addressToCashtag",
      "outputs": [
        {
          "internalType": "string",
          "name": "",
          "type": "string"
        }
      ],
      "stateMutability": "view",
      "type": "function"
    },
    {
      "inputs": [
        {
          "internalType": "string",
          "name": "",
          "type": "string"
        }
      ],
      "name": "balances",
      "outputs": [
        {
          "internalType": "uint256",
          "name": "",
          "type": "uint256"
        }
      ],
      "stateMutability": "view",
      "type": "function"
    },
    {
      "inputs": [
        {
          "internalType": "string",
          "name": "",
          "type": "string"
        }
      ],
      "name": "cashtag",
      "outputs": [
        {
          "internalType": "address",
          "name": "",
          "type": "address"
        }
      ],
      "stateMutability": "view",
      "type": "function"
    },
    {
      "inputs": [],
      "name": "getMessagesCount",
      "outputs": [
        {
          "internalType": "uint256",
          "name": "",
          "type": "uint256"
        }
      ],
      "stateMutability": "view",
      "type": "function"
    },
    {
      "inputs": [
        {
          "internalType": "uint256",
          "name": "",
          "type": "uint256"
        }
      ],
      "name": "messages",
      "outputs": [
        {
          "internalType": "string",
          "name": "content",
          "type": "string"
        },
        {
          "internalType": "string",
          "name": "sender",
          "type": "string"
        },
        {
          "internalType": "string",
          "name": "receiver",
          "type": "string"
        }
      ],
      "stateMutability": "view",
      "type": "function"
    },
    {
      "inputs": [
        {
          "internalType": "string",
          "name": "_cashtag",
          "type": "string"
        },
        {
          "internalType": "string",
          "name": "_from",
          "type": "string"
        },
        {
          "internalType": "string",
          "name": "_message",
          "type": "string"
        }
      ],
      "name": "pay",
      "outputs": [],
      "stateMutability": "payable",
      "type": "function"
    },
    {
      "inputs": [
        {
          "internalType": "string",
          "name": "_cashtag",
          "type": "string"
        }
      ],
      "name": "register",
      "outputs": [],
      "stateMutability": "nonpayable",
      "type": "function"
    },
    {
      "inputs": [
        {
          "internalType": "string",
          "name": "_cashtag",
          "type": "string"
        }
      ],
      "name": "withdrawl",
      "outputs": [],
      "stateMutability": "nonpayable",
      "type": "function"
    },
    {
      "stateMutability": "payable",
      "type": "receive"
    }
  ],
  "transactionHash": "0x91bdc68350dac5f9b73b5bd8b142787a407709e369d9953a7ea6d72e24ea9349",
  "args": [],
  "numDeployments": 3,
  "solcInputHash": "6909b50ca96f0f56f9273d14fd339f3a",
  "bytecode": "0x608060405234801561001057600080fd5b50610dcb806100206000396000f3fe60806040526004361061007f5760003560e01c80633d0c46d01161004e5780633d0c46d01461018f5780635d6443da146101a4578063c4abf2b9146101c6578063f2c298be146101d957600080fd5b80630d80fefd1461008b57806312fb8667146100c357806321e559ff146100f05780632afd97a41461014957600080fd5b3661008657005b600080fd5b34801561009757600080fd5b506100ab6100a636600461096f565b6101f9565b6040516100ba939291906109d8565b60405180910390f35b3480156100cf57600080fd5b506100e36100de366004610a1b565b6103cb565b6040516100ba9190610a4b565b3480156100fc57600080fd5b5061013161010b366004610b01565b80516020818301810180516001825292820191909301209152546001600160a01b031681565b6040516001600160a01b0390911681526020016100ba565b34801561015557600080fd5b50610181610164366004610b01565b805160208183018101805160028252928201919093012091525481565b6040519081526020016100ba565b34801561019b57600080fd5b50600354610181565b3480156101b057600080fd5b506101c46101bf366004610b01565b610465565b005b6101c46101d4366004610b3e565b610605565b3480156101e557600080fd5b506101c46101f4366004610b01565b610894565b6003818154811061020957600080fd5b906000526020600020906003020160009150905080600001805461022c90610bc6565b80601f016020809104026020016040519081016040528092919081815260200182805461025890610bc6565b80156102a55780601f1061027a576101008083540402835291602001916102a5565b820191906000526020600020905b81548152906001019060200180831161028857829003601f168201915b5050505050908060010180546102ba90610bc6565b80601f01602080910402602001604051908101604052809291908181526020018280546102e690610bc6565b80156103335780601f1061030857610100808354040283529160200191610333565b820191906000526020600020905b81548152906001019060200180831161031657829003601f168201915b50505050509080600201805461034890610bc6565b80601f016020809104026020016040519081016040528092919081815260200182805461037490610bc6565b80156103c15780601f10610396576101008083540402835291602001916103c1565b820191906000526020600020905b8154815290600101906020018083116103a457829003601f168201915b5050505050905083565b600060208190529081526040902080546103e490610bc6565b80601f016020809104026020016040519081016040528092919081815260200182805461041090610bc6565b801561045d5780601f106104325761010080835404028352916020019161045d565b820191906000526020600020905b81548152906001019060200180831161044057829003601f168201915b505050505081565b336001600160a01b031660018260405161047f9190610c00565b908152604051908190036020019020546001600160a01b0316146104be5760405162461bcd60e51b81526004016104b590610c1c565b60405180910390fd5b60006002826040516104d09190610c00565b9081526020016040518091039020541161052c5760405162461bcd60e51b815260206004820152601f60248201527f4d757374206861766520612062616c616e636520746f2077697468647261770060448201526064016104b5565b6000336001600160a01b03166002836040516105489190610c00565b9081526040519081900360200181205490600081818185875af1925050503d8060008114610592576040519150601f19603f3d011682016040523d82523d6000602084013e610597565b606091505b50509050806105df5760405162461bcd60e51b81526020600482015260146024820152732330b4b632b2103a379039b2b7321022ba3432b960611b60448201526064016104b5565b60006002836040516105f19190610c00565b908152604051908190036020019020555050565b600034116106475760405162461bcd60e51b815260206004820152600f60248201526e086c2dc4ee840a0c2f24060408ae8d608b1b60448201526064016104b5565b60006001600160a01b03166001846040516106629190610c00565b908152604051908190036020019020546001600160a01b0316036106c15760405162461bcd60e51b815260206004820152601660248201527510d85cda151859c8139bdd08149959da5cdd195c995960521b60448201526064016104b5565b60006001600160a01b03166001836040516106dc9190610c00565b908152604051908190036020019020546001600160a01b03160361073b5760405162461bcd60e51b815260206004820152601660248201527510d85cda151859c8139bdd08149959da5cdd195c995960521b60448201526064016104b5565b336001600160a01b03166001836040516107559190610c00565b908152604051908190036020019020546001600160a01b03161461078b5760405162461bcd60e51b81526004016104b590610c1c565b3460028460405161079c9190610c00565b908152602001604051809103902060008282546107b99190610c60565b909155505080511561088f57604080516060810182528281526020810184905290810184905260038054600181018255600082905282518392919091027fc2575a0e9e593c00f959f8c92f12db2869c3395a3b0502d05e2516446f71f85b019081906108259082610cd5565b506020820151600182019061083a9082610cd5565b506040820151600282019061084f9082610cd5565b5050507fc430bae2367ca75e43a57edca3be4bba96fc488b5f6c65fd58f414010cdd798c828486604051610885939291906109d8565b60405180910390a1505b505050565b60006001600160a01b03166001826040516108af9190610c00565b908152604051908190036020019020546001600160a01b0316146109155760405162461bcd60e51b815260206004820152601a60248201527f4361736854616720416c7265616479205265676973746572656400000000000060448201526064016104b5565b336001826040516109269190610c00565b908152604080516020928190038301902080546001600160a01b0319166001600160a01b039490941693909317909255336000908152908190522061096b8282610cd5565b5050565b60006020828403121561098157600080fd5b5035919050565b60005b838110156109a357818101518382015260200161098b565b50506000910152565b600081518084526109c4816020860160208601610988565b601f01601f19169290920160200192915050565b6060815260006109eb60608301866109ac565b82810360208401526109fd81866109ac565b90508281036040840152610a1181856109ac565b9695505050505050565b600060208284031215610a2d57600080fd5b81356001600160a01b0381168114610a4457600080fd5b9392505050565b602081526000610a4460208301846109ac565b634e487b7160e01b600052604160045260246000fd5b600082601f830112610a8557600080fd5b813567ffffffffffffffff80821115610aa057610aa0610a5e565b604051601f8301601f19908116603f01168101908282118183101715610ac857610ac8610a5e565b81604052838152866020858801011115610ae157600080fd5b836020870160208301376000602085830101528094505050505092915050565b600060208284031215610b1357600080fd5b813567ffffffffffffffff811115610b2a57600080fd5b610b3684828501610a74565b949350505050565b600080600060608486031215610b5357600080fd5b833567ffffffffffffffff80821115610b6b57600080fd5b610b7787838801610a74565b94506020860135915080821115610b8d57600080fd5b610b9987838801610a74565b93506040860135915080821115610baf57600080fd5b50610bbc86828701610a74565b9150509250925092565b600181811c90821680610bda57607f821691505b602082108103610bfa57634e487b7160e01b600052602260045260246000fd5b50919050565b60008251610c12818460208701610988565b9190910192915050565b60208082526024908201527f43617368546167204e6f74205265676973746572656420546f204d73672e5365604082015263373232b960e11b606082015260800190565b80820180821115610c8157634e487b7160e01b600052601160045260246000fd5b92915050565b601f82111561088f57600081815260208120601f850160051c81016020861015610cae5750805b601f850160051c820191505b81811015610ccd57828155600101610cba565b505050505050565b815167ffffffffffffffff811115610cef57610cef610a5e565b610d0381610cfd8454610bc6565b84610c87565b602080601f831160018114610d385760008415610d205750858301515b600019600386901b1c1916600185901b178555610ccd565b600085815260208120601f198616915b82811015610d6757888601518255948401946001909101908401610d48565b5085821015610d855787850151600019600388901b60f8161c191681555b5050505050600190811b0190555056fea26469706673582212200bb35420d3f3b1dca76ffb69125394f0046e9eae0507995f5d69baa3bcbd838464736f6c63430008110033",
  "devdoc": {
    "kind": "dev",
    "methods": {},
    "version": 1
  },
  "userdoc": {
    "kind": "user",
    "methods": {},
    "version": 1
  },
  "storageLayout": {
    "storage": [
      {
        "astId": 5,
        "contract": "contracts/CashApp.sol:CashApp",
        "label": "addressToCashtag",
        "offset": 0,
        "slot": "0",
        "type": "t_mapping(t_address,t_string_storage)"
      },
      {
        "astId": 9,
        "contract": "contracts/CashApp.sol:CashApp",
        "label": "cashtag",
        "offset": 0,
        "slot": "1",
        "type": "t_mapping(t_string_memory_ptr,t_address)"
      },
      {
        "astId": 13,
        "contract": "contracts/CashApp.sol:CashApp",
        "label": "balances",
        "offset": 0,
        "slot": "2",
        "type": "t_mapping(t_string_memory_ptr,t_uint256)"
      },
      {
        "astId": 32,
        "contract": "contracts/CashApp.sol:CashApp",
        "label": "messages",
        "offset": 0,
        "slot": "3",
        "type": "t_array(t_struct(Message)20_storage)dyn_storage"
      }
    ],
    "types": {
      "t_address": {
        "encoding": "inplace",
        "label": "address",
        "numberOfBytes": "20"
      },
      "t_array(t_struct(Message)20_storage)dyn_storage": {
        "base": "t_struct(Message)20_storage",
        "encoding": "dynamic_array",
        "label": "struct CashApp.Message[]",
        "numberOfBytes": "32"
      },
      "t_mapping(t_address,t_string_storage)": {
        "encoding": "mapping",
        "key": "t_address",
        "label": "mapping(address => string)",
        "numberOfBytes": "32",
        "value": "t_string_storage"
      },
      "t_mapping(t_string_memory_ptr,t_address)": {
        "encoding": "mapping",
        "key": "t_string_memory_ptr",
        "label": "mapping(string => address)",
        "numberOfBytes": "32",
        "value": "t_address"
      },
      "t_mapping(t_string_memory_ptr,t_uint256)": {
        "encoding": "mapping",
        "key": "t_string_memory_ptr",
        "label": "mapping(string => uint256)",
        "numberOfBytes": "32",
        "value": "t_uint256"
      },
      "t_string_memory_ptr": {
        "encoding": "bytes",
        "label": "string",
        "numberOfBytes": "32"
      },
      "t_string_storage": {
        "encoding": "bytes",
        "label": "string",
        "numberOfBytes": "32"
      },
      "t_struct(Message)20_storage": {
        "encoding": "inplace",
        "label": "struct CashApp.Message",
        "members": [
          {
            "astId": 15,
            "contract": "contracts/CashApp.sol:CashApp",
            "label": "content",
            "offset": 0,
            "slot": "0",
            "type": "t_string_storage"
          },
          {
            "astId": 17,
            "contract": "contracts/CashApp.sol:CashApp",
            "label": "sender",
            "offset": 0,
            "slot": "1",
            "type": "t_string_storage"
          },
          {
            "astId": 19,
            "contract": "contracts/CashApp.sol:CashApp",
            "label": "receiver",
            "offset": 0,
            "slot": "2",
            "type": "t_string_storage"
          }
        ],
        "numberOfBytes": "96"
      },
      "t_uint256": {
        "encoding": "inplace",
        "label": "uint256",
        "numberOfBytes": "32"
      }
    }
  }
}