{
    "address": "0x890339FdcF8d7F2ea59286Fc819e584701889294",
    "abi": [
        {
            "inputs": [],
            "stateMutability": "nonpayable",
            "type": "constructor"
        },
        {
            "anonymous": false,
            "inputs": [
                {
                    "indexed": false,
                    "internalType": "string",
                    "name": "content",
                    "type": "string"
                },
                {
                    "indexed": false,
                    "internalType": "string",
                    "name": "sender",
                    "type": "string"
                },
                {
                    "indexed": false,
                    "internalType": "string",
                    "name": "receiver",
                    "type": "string"
                }
            ],
            "name": "MessageSent",
            "type": "event"
        },
        {
            "inputs": [
                {
                    "internalType": "address",
                    "name": "",
                    "type": "address"
                }
            ],
            "name": "addressToCashtag",
            "outputs": [
                {
                    "internalType": "string",
                    "name": "",
                    "type": "string"
                }
            ],
            "stateMutability": "view",
            "type": "function"
        },
        {
            "inputs": [
                {
                    "internalType": "string",
                    "name": "",
                    "type": "string"
                }
            ],
            "name": "balances",
            "outputs": [
                {
                    "internalType": "uint256",
                    "name": "",
                    "type": "uint256"
                }
            ],
            "stateMutability": "view",
            "type": "function"
        },
        {
            "inputs": [
                {
                    "internalType": "string",
                    "name": "",
                    "type": "string"
                }
            ],
            "name": "cashtag",
            "outputs": [
                {
                    "internalType": "address",
                    "name": "",
                    "type": "address"
                }
            ],
            "stateMutability": "view",
            "type": "function"
        },
        {
            "inputs": [
                {
                    "internalType": "uint256",
                    "name": "",
                    "type": "uint256"
                }
            ],
            "name": "messages",
            "outputs": [
                {
                    "internalType": "string",
                    "name": "content",
                    "type": "string"
                },
                {
                    "internalType": "string",
                    "name": "sender",
                    "type": "string"
                },
                {
                    "internalType": "string",
                    "name": "receiver",
                    "type": "string"
                }
            ],
            "stateMutability": "view",
            "type": "function"
        },
        {
            "inputs": [
                {
                    "internalType": "string",
                    "name": "_cashtag",
                    "type": "string"
                },
                {
                    "internalType": "string",
                    "name": "_from",
                    "type": "string"
                },
                {
                    "internalType": "string",
                    "name": "_message",
                    "type": "string"
                }
            ],
            "name": "pay",
            "outputs": [],
            "stateMutability": "payable",
            "type": "function"
        },
        {
            "inputs": [
                {
                    "internalType": "string",
                    "name": "_cashtag",
                    "type": "string"
                }
            ],
            "name": "register",
            "outputs": [],
            "stateMutability": "nonpayable",
            "type": "function"
        },
        {
            "inputs": [
                {
                    "internalType": "string",
                    "name": "_cashtag",
                    "type": "string"
                }
            ],
            "name": "withdrawl",
            "outputs": [],
            "stateMutability": "nonpayable",
            "type": "function"
        },
        {
            "stateMutability": "payable",
            "type": "receive"
        }
    ],
    "transactionHash": "0x6784aebeda3b3e5982f867fad1eee638164ab88eab543d3d6200aba20445cd49",
    "args": [],
    "numDeployments": 2,
    "solcInputHash": "696bc630a54af42dd7dc9076a8b79bc8",
    "bytecode": "0x608060405234801561001057600080fd5b50610d83806100206000396000f3fe6080604052600436106100745760003560e01c80632afd97a41161004e5780632afd97a41461013e5780635d6443da14610184578063c4abf2b9146101a6578063f2c298be146101b957600080fd5b80630d80fefd1461008057806312fb8667146100b857806321e559ff146100e557600080fd5b3661007b57005b600080fd5b34801561008c57600080fd5b506100a061009b366004610927565b6101d9565b6040516100af93929190610990565b60405180910390f35b3480156100c457600080fd5b506100d86100d33660046109d3565b6103ab565b6040516100af9190610a03565b3480156100f157600080fd5b50610126610100366004610ab9565b80516020818301810180516001825292820191909301209152546001600160a01b031681565b6040516001600160a01b0390911681526020016100af565b34801561014a57600080fd5b50610176610159366004610ab9565b805160208183018101805160028252928201919093012091525481565b6040519081526020016100af565b34801561019057600080fd5b506101a461019f366004610ab9565b610445565b005b6101a46101b4366004610af6565b6105c3565b3480156101c557600080fd5b506101a46101d4366004610ab9565b610850565b600381815481106101e957600080fd5b906000526020600020906003020160009150905080600001805461020c90610b7e565b80601f016020809104026020016040519081016040528092919081815260200182805461023890610b7e565b80156102855780601f1061025a57610100808354040283529160200191610285565b820191906000526020600020905b81548152906001019060200180831161026857829003601f168201915b50505050509080600101805461029a90610b7e565b80601f01602080910402602001604051908101604052809291908181526020018280546102c690610b7e565b80156103135780601f106102e857610100808354040283529160200191610313565b820191906000526020600020905b8154815290600101906020018083116102f657829003601f168201915b50505050509080600201805461032890610b7e565b80601f016020809104026020016040519081016040528092919081815260200182805461035490610b7e565b80156103a15780601f10610376576101008083540402835291602001916103a1565b820191906000526020600020905b81548152906001019060200180831161038457829003601f168201915b5050505050905083565b600060208190529081526040902080546103c490610b7e565b80601f01602080910402602001604051908101604052809291908181526020018280546103f090610b7e565b801561043d5780601f106104125761010080835404028352916020019161043d565b820191906000526020600020905b81548152906001019060200180831161042057829003601f168201915b505050505081565b336001600160a01b031660018260405161045f9190610bb8565b908152604051908190036020019020546001600160a01b03161461049e5760405162461bcd60e51b815260040161049590610bd4565b60405180910390fd5b60006002826040516104b09190610bb8565b9081526020016040518091039020541161050c5760405162461bcd60e51b815260206004820181905260248201527f4d757374206861766520612062616c616e636520746f2077697468647261776c6044820152606401610495565b6000336001600160a01b03166002836040516105289190610bb8565b9081526040519081900360200181205490600081818185875af1925050503d8060008114610572576040519150601f19603f3d011682016040523d82523d6000602084013e610577565b606091505b50509050806105bf5760405162461bcd60e51b81526020600482015260146024820152732330b4b632b2103a379039b2b7321022ba3432b960611b6044820152606401610495565b5050565b600034116106035760405162461bcd60e51b815260206004820152600d60248201526c086c2dce840a0c2f240608ae8d609b1b6044820152606401610495565b60006001600160a01b031660018460405161061e9190610bb8565b908152604051908190036020019020546001600160a01b03160361067d5760405162461bcd60e51b815260206004820152601660248201527510d85cda151859c8139bdd08149959da5cdd195c995960521b6044820152606401610495565b60006001600160a01b03166001836040516106989190610bb8565b908152604051908190036020019020546001600160a01b0316036106f75760405162461bcd60e51b815260206004820152601660248201527510d85cda151859c8139bdd08149959da5cdd195c995960521b6044820152606401610495565b336001600160a01b03166001836040516107119190610bb8565b908152604051908190036020019020546001600160a01b0316146107475760405162461bcd60e51b815260040161049590610bd4565b346002846040516107589190610bb8565b908152602001604051809103902060008282546107759190610c18565b909155505080511561084b57604080516060810182528281526020810184905290810184905260038054600181018255600082905282518392919091027fc2575a0e9e593c00f959f8c92f12db2869c3395a3b0502d05e2516446f71f85b019081906107e19082610c8d565b50602082015160018201906107f69082610c8d565b506040820151600282019061080b9082610c8d565b5050507fc430bae2367ca75e43a57edca3be4bba96fc488b5f6c65fd58f414010cdd798c82848660405161084193929190610990565b60405180910390a1505b505050565b60006001600160a01b031660018260405161086b9190610bb8565b908152604051908190036020019020546001600160a01b0316146108d15760405162461bcd60e51b815260206004820152601a60248201527f4361736854616720416c726561647920526567697374657265640000000000006044820152606401610495565b336001826040516108e29190610bb8565b908152604080516020928190038301902080546001600160a01b0319166001600160a01b03949094169390931790925533600090815290819052206105bf8282610c8d565b60006020828403121561093957600080fd5b5035919050565b60005b8381101561095b578181015183820152602001610943565b50506000910152565b6000815180845261097c816020860160208601610940565b601f01601f19169290920160200192915050565b6060815260006109a36060830186610964565b82810360208401526109b58186610964565b905082810360408401526109c98185610964565b9695505050505050565b6000602082840312156109e557600080fd5b81356001600160a01b03811681146109fc57600080fd5b9392505050565b6020815260006109fc6020830184610964565b634e487b7160e01b600052604160045260246000fd5b600082601f830112610a3d57600080fd5b813567ffffffffffffffff80821115610a5857610a58610a16565b604051601f8301601f19908116603f01168101908282118183101715610a8057610a80610a16565b81604052838152866020858801011115610a9957600080fd5b836020870160208301376000602085830101528094505050505092915050565b600060208284031215610acb57600080fd5b813567ffffffffffffffff811115610ae257600080fd5b610aee84828501610a2c565b949350505050565b600080600060608486031215610b0b57600080fd5b833567ffffffffffffffff80821115610b2357600080fd5b610b2f87838801610a2c565b94506020860135915080821115610b4557600080fd5b610b5187838801610a2c565b93506040860135915080821115610b6757600080fd5b50610b7486828701610a2c565b9150509250925092565b600181811c90821680610b9257607f821691505b602082108103610bb257634e487b7160e01b600052602260045260246000fd5b50919050565b60008251610bca818460208701610940565b9190910192915050565b60208082526024908201527f43617368546167204e6f74205265676973746572656420546f204d73672e5365604082015263373232b960e11b606082015260800190565b80820180821115610c3957634e487b7160e01b600052601160045260246000fd5b92915050565b601f82111561084b57600081815260208120601f850160051c81016020861015610c665750805b601f850160051c820191505b81811015610c8557828155600101610c72565b505050505050565b815167ffffffffffffffff811115610ca757610ca7610a16565b610cbb81610cb58454610b7e565b84610c3f565b602080601f831160018114610cf05760008415610cd85750858301515b600019600386901b1c1916600185901b178555610c85565b600085815260208120601f198616915b82811015610d1f57888601518255948401946001909101908401610d00565b5085821015610d3d5787850151600019600388901b60f8161c191681555b5050505050600190811b0190555056fea2646970667358221220ed7c34d5bb1ce355e88a124dcd9a00f90da26b9683f4379758db31e43cf92c4264736f6c63430008110033",
    "devdoc": {
        "kind": "dev",
        "methods": {},
        "version": 1
    },
    "userdoc": {
        "kind": "user",
        "methods": {},
        "version": 1
    },
    "storageLayout": {
        "storage": [
            {
                "astId": 5,
                "contract": "contracts/CashApp.sol:CashApp",
                "label": "addressToCashtag",
                "offset": 0,
                "slot": "0",
                "type": "t_mapping(t_address,t_string_storage)"
            },
            {
                "astId": 9,
                "contract": "contracts/CashApp.sol:CashApp",
                "label": "cashtag",
                "offset": 0,
                "slot": "1",
                "type": "t_mapping(t_string_memory_ptr,t_address)"
            },
            {
                "astId": 13,
                "contract": "contracts/CashApp.sol:CashApp",
                "label": "balances",
                "offset": 0,
                "slot": "2",
                "type": "t_mapping(t_string_memory_ptr,t_uint256)"
            },
            {
                "astId": 32,
                "contract": "contracts/CashApp.sol:CashApp",
                "label": "messages",
                "offset": 0,
                "slot": "3",
                "type": "t_array(t_struct(Message)20_storage)dyn_storage"
            }
        ],
        "types": {
            "t_address": {
                "encoding": "inplace",
                "label": "address",
                "numberOfBytes": "20"
            },
            "t_array(t_struct(Message)20_storage)dyn_storage": {
                "base": "t_struct(Message)20_storage",
                "encoding": "dynamic_array",
                "label": "struct CashApp.Message[]",
                "numberOfBytes": "32"
            },
            "t_mapping(t_address,t_string_storage)": {
                "encoding": "mapping",
                "key": "t_address",
                "label": "mapping(address => string)",
                "numberOfBytes": "32",
                "value": "t_string_storage"
            },
            "t_mapping(t_string_memory_ptr,t_address)": {
                "encoding": "mapping",
                "key": "t_string_memory_ptr",
                "label": "mapping(string => address)",
                "numberOfBytes": "32",
                "value": "t_address"
            },
            "t_mapping(t_string_memory_ptr,t_uint256)": {
                "encoding": "mapping",
                "key": "t_string_memory_ptr",
                "label": "mapping(string => uint256)",
                "numberOfBytes": "32",
                "value": "t_uint256"
            },
            "t_string_memory_ptr": {
                "encoding": "bytes",
                "label": "string",
                "numberOfBytes": "32"
            },
            "t_string_storage": {
                "encoding": "bytes",
                "label": "string",
                "numberOfBytes": "32"
            },
            "t_struct(Message)20_storage": {
                "encoding": "inplace",
                "label": "struct CashApp.Message",
                "members": [
                    {
                        "astId": 15,
                        "contract": "contracts/CashApp.sol:CashApp",
                        "label": "content",
                        "offset": 0,
                        "slot": "0",
                        "type": "t_string_storage"
                    },
                    {
                        "astId": 17,
                        "contract": "contracts/CashApp.sol:CashApp",
                        "label": "sender",
                        "offset": 0,
                        "slot": "1",
                        "type": "t_string_storage"
                    },
                    {
                        "astId": 19,
                        "contract": "contracts/CashApp.sol:CashApp",
                        "label": "receiver",
                        "offset": 0,
                        "slot": "2",
                        "type": "t_string_storage"
                    }
                ],
                "numberOfBytes": "96"
            },
            "t_uint256": {
                "encoding": "inplace",
                "label": "uint256",
                "numberOfBytes": "32"
            }
        }
    }
}